:08000000803102288731FD2F39
:100F1400873199278731873191278731080021004C
:100F24000E100C1523000C1122000E100800FC30CA
:100F34002100990519088739383899009913080050
:100F4400F301F401BD2F22000E142930F200943075
:100F5400890BAA2FF20BAA2F003222000E1029307F
:100F6400F2009430890BB42FF20BB42F003201300D
:100F7400F3070030F43D7408803AF2007108803AB7
:100F84007202031DC72F70087302031CCA2FCB2FD4
:100F9400A52F080087318A278731F701F801EB2F45
:100FA4000130F7070030F83D7808F1007708F000C9
:100FB4008731A22787317808803AF500803075029E
:100FC400031DE62F0A307702031CE92FEA2FEB2FCB
:100FD400CF2F20000C0C890C0139F500F60176089E
:100FE400003A0319F62FEB2F7508003A0319D22F94
:0C0FF400EB2F8031022820008731CC2F29
:020000040001F9
:04000E00A40FFF1C20
:00000001FF
