:060000000A128A11FC2F18
:100D94008316031385010616861683160317880126
:100DA40089010800831603130F140F088F39303894
:100DB4008F008F150F1DDF2EE02EDC2E08000A1287
:100DC4008A11D4260A128A110A128A11CA260A1210
:100DD4008A110F3083120313850008000A128A1146
:100DE400E1260A128A1183120313A401A501A601A4
:100DF400A701A001A101A201A301060E0139F60079
:100E0400F7017608A0007708A10083120313060EE9
:100E14000139F600F7017608A2007708A300203014
:100E24000A128A115B270A128A11831203132308F8
:100E3400A1002208A0000130F600260A232F031087
:100E4400F60DFF3E031D212F7608FF3AF7007708C1
:100E540085052930F600F60B2D2F00000130F60031
:100E640083120313260A382F0310F60DFF3E031DC9
:100E7400362F7608F700770885042930F600F60B3C
:100E8400412F0000831203132708803AFF008030AB
:100E94007F02031D4F2F04302602031C522F532FB1
:100EA400072F83120313A601A701072F0A128A1121
:100EB4000028F5007508840083130008F000840AF4
:100EC4000008F1007508023E84000008F200840A5C
:100ED4000008F30071087306031D722F7008720670
:100EE4000319752F762FFB2F7508023E8400000826
:100EF400F000840A0008F10083120313060EF200C6
:100F0400720C0139F300F40171087406031D8C2F6F
:100F14007008730603198F2F902FAD2F7508043EA8
:100F2400840001308007840A0318800A7508043E8F
:100F340084000008F000840A0008F100701CA32F4C
:100F4400A42FEB2F7508063E840001308007840A25
:100F54000318800AEB2F7508023E84000008F00095
:100F6400840A0008F100060E0139F200F301710849
:100F74007306031DBF2F70087206031DC22FC32FF3
:100F8400EB2F7508043E8400FF308007840F0008AF
:100F94000318000AFF00FF307F07800084037508F0
:100FA400043E84000008F000840A0008F100701C6C
:100FB400DC2FDD2FEB2F7508063E8400FF30800701
:100FC400840F00080318000AFF00FF307F07800029
:100FD40084037508063E8400840A801FF22FF32FD1
:100FE400FB2F7508063E840003308000840A00301D
:0C0FF4008000080083010A128A11F02E10
:04400E00C423FF3F89
:00000001FF
