:060000000A128A11F22F22
:100D7800831603130F1470308F048F150F1DC52EA3
:100D8800C62EC22E08000A128A11BC260A128A111F
:100D98000A128A11D6260A128A110F3083120313F7
:100DA80085000800831603138501091583160317A8
:100DB800880189018817831203131F083F39803877
:100DC8009F001F08C3391C389F001F148316031384
:100DD8009F170800F401F501701CF32EF42EFA2E6B
:100DE8007208F4070318F50A7308F50701300310B1
:100DF800F20DF30DFF3E031DFB2E01300310F10C25
:100E0800F00CFF3E031D022F70087104031D0D2F07
:100E18000E2FF02E7508F1007408F00008000A1271
:100E28008A11C7260A128A11203084000830FF0070
:100E380083138001840AFF0B1C2FCC308312031309
:100E4800A0000030A1000130AA000030AB008312DE
:100E580003132A08013EF0002B080318013E003E48
:100E6800F1002108F3002008F2000A128A11EE2688
:100E78000A128A11831203132A08F6007607203E05
:100E88008400700883138000840A71088000013090
:100E9800AA070318AB0A0030AB072B08803AFF00FB
:100EA80080307F02031D5A2F04302A02031C5D2F55
:100EB8005E2F2B2F0330F600F60B602F83120313DF
:100EC8009F149F18682F692F652F1E08A900831685
:100ED80003131E0883120313A800AC01AD0183128B
:100EE80003132C08F6007607203E840083130008BD
:100EF800F700840A0008F8007708EC3EF900780843
:100F08000318013EFF3EFA007A08803AFB002908E0
:100F1800803A7B02031D922F280879020318952F27
:100F2800962FA72F0130F600831203132C0A9E2F49
:100F38000310F60DFF3E031D9C2F7608FF3AF700BD
:100F480077088505D92F831203132C08F600760736
:100F5800203E840083130008F700840A0008F80084
:100F68007708EC3EF90078080318013EFF3EFA00C6
:100F78007A08803AFB002908803A7B02031DC62FB5
:100F880028087902031CC92FCA2FD92F0130F6006F
:100F9800831203132C0AD22F0310F60DFF3E031DF4
:100FA800D02F7608F70077088504013083120313E1
:100FB800AC070318AD0A0030AD072D08803AFF00D2
:100FC80080307F02031DEA2F04302C02031CED2F12
:100FD800EE2F732F5E2F0A128A1100288312031333
:100FE800AE01AF01B001B101B201B301B401B50165
:080FF80083010A128A11132F74
:04400E00C423FF3F89
:00000001FF
