:08000000803102288731F42F42
:100E0E0087310E2787318731172787310800FC304D
:100E1E002100990519088739383899009913080067
:100E2E0022000E1021000C150C1623000C110C16AE
:100E3E0021008E0122008E010800F401F501701CC4
:100E4E00292F2A2F2E2F7208F4077308F53D013033
:100E5E00F235F30D890B2F2F0130F136F00C890B83
:100E6E00342F70087104031D3D2F3E2F262F750859
:100E7E00F1007408F00008000F3021009D009E174D
:100E8E0087310727873120308600003087000830F1
:100E9E00F60000301E00F60B512FCC302000A000C3
:100EAE000030A1000130A8000030A9002000280861
:100EBE00013EF0000030293DF1002108F30020082A
:100ECE00F20087312427873120002835203E860006
:100EDE0087017008C03F7108C13F0130A80700307C
:100EEE00A93D2908803AF60080307602031D812F35
:100EFE0004302802031C842F852F5D2F0032003210
:100F0E00003221009D149D188D2F8E2F8A2F2000C8
:100F1E00AA01AB0120002A35203E86008701403F02
:100F2E00F600413FF7007608EC3EF800FF30773DC3
:100F3E00F90021001C087902031DA72F1B08780257
:100F4E000318AA2FAB2FB82F0130F60020002A0A63
:100F5E00B12FF635890BB02F760822000E048E00C5
:100F6E00DF2F20002A35203E86008701403FF60005
:100F7E00413FF7007608EC3EF800FF30773DF90070
:100F8E0021001C087902031DCE2F1B087802031CBA
:100F9E00D12FD22FDF2F0130F60020002A0AD82FB2
:100FAE00F635890BD72F7608FF3A22000E058E00F4
:100FBE0001302000AA070030AB3D2B08803AF60026
:100FCE0080307602031DED2F04302A02031CF02F11
:100FDE00F12F912F852F803102282000AC01AD0119
:100FEE00AE01AF01B001B101B201B30120008731F2
:020FFE00432F7F
:020000040001F9
:04000E00A40FFF1C20
:00000001FF
