:0400000080315928CA
:100008007E148031292855308031E02080318031BC
:10001800D3208031F8007808F039031914281528FE
:10002800242822000E130330F2008A30F1005630E3
:10003800890B1C28F10B1C28F20B1C2822000E1718
:100048000130F9000030FA0033287708003A031924
:100058002E2833287608013A0319072833288B1CE1
:100068003628372857280130F9060030FA064A287A
:10007800210015138B100130F6000030F7005728C7
:10008800F601F701210015178B1057287A08003A56
:1000980003194F2857287908003A03193C28013AD0
:1000A8000319442857287E10090080315B288031C5
:1000B800E5208031F9008031E6208031FA00F60130
:1000C800F701F8017E1020008031DA282000A00016
:1000D8002400150820002006F03920062400950089
:1000E80021008E13043020002002031C7C287D2868
:1000F8009528063020020318822883289528240092
:10010800941321000D1720000D1B8B288E28240026
:1001180015169028240015128B170B17210091151E
:10012800A9280430200203189A289B28A928730CB0
:100138002400031C94130318941721000D13740C46
:100148002400031C151203181516750C2400031C33
:10015800141303181417951608008031CA2080312B
:100168008031BF208031F301F401F5010030803186
:100178006A208031080023008E018D018C01210046
:100188000E1322000E178B170B160800FC302100E7
:1001980099051908873968389900991308002400C7
:1001A800141CD728D828D328110808008031B1207A
:1001B8008031DD2880315928F00070082400910032
:0601C800080001340034C0
:020000040001F9
:04000E00A40FFF1C20
:00000001FF
